{
  "_format": "hh-sol-artifact-1",
  "contractName": "TestNFT",
  "sourceName": "contracts/Pengumon.sol",
  "abi": [
    {
      "inputs": [],
      "stateMutability": "nonpayable",
      "type": "constructor"
    },
    {
      "anonymous": false,
      "inputs": [
        {
          "indexed": true,
          "internalType": "address",
          "name": "owner",
          "type": "address"
        },
        {
          "indexed": true,
          "internalType": "address",
          "name": "approved",
          "type": "address"
        },
        {
          "indexed": true,
          "internalType": "uint256",
          "name": "tokenId",
          "type": "uint256"
        }
      ],
      "name": "Approval",
      "type": "event"
    },
    {
      "anonymous": false,
      "inputs": [
        {
          "indexed": true,
          "internalType": "address",
          "name": "owner",
          "type": "address"
        },
        {
          "indexed": true,
          "internalType": "address",
          "name": "operator",
          "type": "address"
        },
        {
          "indexed": false,
          "internalType": "bool",
          "name": "approved",
          "type": "bool"
        }
      ],
      "name": "ApprovalForAll",
      "type": "event"
    },
    {
      "anonymous": false,
      "inputs": [
        {
          "indexed": true,
          "internalType": "address",
          "name": "previousOwner",
          "type": "address"
        },
        {
          "indexed": true,
          "internalType": "address",
          "name": "newOwner",
          "type": "address"
        }
      ],
      "name": "OwnershipTransferred",
      "type": "event"
    },
    {
      "anonymous": false,
      "inputs": [
        {
          "indexed": true,
          "internalType": "address",
          "name": "from",
          "type": "address"
        },
        {
          "indexed": true,
          "internalType": "address",
          "name": "to",
          "type": "address"
        },
        {
          "indexed": true,
          "internalType": "uint256",
          "name": "tokenId",
          "type": "uint256"
        }
      ],
      "name": "Transfer",
      "type": "event"
    },
    {
      "inputs": [],
      "name": "_paused",
      "outputs": [
        {
          "internalType": "bool",
          "name": "",
          "type": "bool"
        }
      ],
      "stateMutability": "view",
      "type": "function"
    },
    {
      "inputs": [
        {
          "internalType": "address",
          "name": "to",
          "type": "address"
        },
        {
          "internalType": "uint256",
          "name": "tokenId",
          "type": "uint256"
        }
      ],
      "name": "approve",
      "outputs": [],
      "stateMutability": "nonpayable",
      "type": "function"
    },
    {
      "inputs": [
        {
          "internalType": "address",
          "name": "owner",
          "type": "address"
        }
      ],
      "name": "balanceOf",
      "outputs": [
        {
          "internalType": "uint256",
          "name": "",
          "type": "uint256"
        }
      ],
      "stateMutability": "view",
      "type": "function"
    },
    {
      "inputs": [],
      "name": "baseUri",
      "outputs": [
        {
          "internalType": "string",
          "name": "",
          "type": "string"
        }
      ],
      "stateMutability": "view",
      "type": "function"
    },
    {
      "inputs": [
        {
          "internalType": "uint256",
          "name": "tokenId",
          "type": "uint256"
        }
      ],
      "name": "burn",
      "outputs": [],
      "stateMutability": "nonpayable",
      "type": "function"
    },
    {
      "inputs": [
        {
          "internalType": "bool",
          "name": "up",
          "type": "bool"
        },
        {
          "internalType": "uint256",
          "name": "tokenId",
          "type": "uint256"
        }
      ],
      "name": "changeLevel",
      "outputs": [],
      "stateMutability": "nonpayable",
      "type": "function"
    },
    {
      "inputs": [],
      "name": "createCharacter",
      "outputs": [],
      "stateMutability": "payable",
      "type": "function"
    },
    {
      "inputs": [
        {
          "internalType": "uint256",
          "name": "tokenId",
          "type": "uint256"
        }
      ],
      "name": "getApproved",
      "outputs": [
        {
          "internalType": "address",
          "name": "",
          "type": "address"
        }
      ],
      "stateMutability": "view",
      "type": "function"
    },
    {
      "inputs": [
        {
          "internalType": "uint256",
          "name": "tokenId",
          "type": "uint256"
        }
      ],
      "name": "getLevels",
      "outputs": [
        {
          "internalType": "uint256",
          "name": "",
          "type": "uint256"
        }
      ],
      "stateMutability": "view",
      "type": "function"
    },
    {
      "inputs": [],
      "name": "getPrice",
      "outputs": [
        {
          "internalType": "uint256",
          "name": "",
          "type": "uint256"
        }
      ],
      "stateMutability": "view",
      "type": "function"
    },
    {
      "inputs": [
        {
          "internalType": "address",
          "name": "owner",
          "type": "address"
        },
        {
          "internalType": "address",
          "name": "operator",
          "type": "address"
        }
      ],
      "name": "isApprovedForAll",
      "outputs": [
        {
          "internalType": "bool",
          "name": "",
          "type": "bool"
        }
      ],
      "stateMutability": "view",
      "type": "function"
    },
    {
      "inputs": [],
      "name": "name",
      "outputs": [
        {
          "internalType": "string",
          "name": "",
          "type": "string"
        }
      ],
      "stateMutability": "view",
      "type": "function"
    },
    {
      "inputs": [],
      "name": "owner",
      "outputs": [
        {
          "internalType": "address",
          "name": "",
          "type": "address"
        }
      ],
      "stateMutability": "view",
      "type": "function"
    },
    {
      "inputs": [
        {
          "internalType": "uint256",
          "name": "tokenId",
          "type": "uint256"
        }
      ],
      "name": "ownerOf",
      "outputs": [
        {
          "internalType": "address",
          "name": "",
          "type": "address"
        }
      ],
      "stateMutability": "view",
      "type": "function"
    },
    {
      "inputs": [
        {
          "internalType": "bool",
          "name": "val",
          "type": "bool"
        }
      ],
      "name": "pause",
      "outputs": [],
      "stateMutability": "nonpayable",
      "type": "function"
    },
    {
      "inputs": [],
      "name": "renounceOwnership",
      "outputs": [],
      "stateMutability": "nonpayable",
      "type": "function"
    },
    {
      "inputs": [
        {
          "internalType": "address",
          "name": "from",
          "type": "address"
        },
        {
          "internalType": "address",
          "name": "to",
          "type": "address"
        },
        {
          "internalType": "uint256",
          "name": "tokenId",
          "type": "uint256"
        }
      ],
      "name": "safeTransferFrom",
      "outputs": [],
      "stateMutability": "nonpayable",
      "type": "function"
    },
    {
      "inputs": [
        {
          "internalType": "address",
          "name": "from",
          "type": "address"
        },
        {
          "internalType": "address",
          "name": "to",
          "type": "address"
        },
        {
          "internalType": "uint256",
          "name": "tokenId",
          "type": "uint256"
        },
        {
          "internalType": "bytes",
          "name": "data",
          "type": "bytes"
        }
      ],
      "name": "safeTransferFrom",
      "outputs": [],
      "stateMutability": "nonpayable",
      "type": "function"
    },
    {
      "inputs": [
        {
          "internalType": "address",
          "name": "operator",
          "type": "address"
        },
        {
          "internalType": "bool",
          "name": "approved",
          "type": "bool"
        }
      ],
      "name": "setApprovalForAll",
      "outputs": [],
      "stateMutability": "nonpayable",
      "type": "function"
    },
    {
      "inputs": [
        {
          "internalType": "string",
          "name": "_uri",
          "type": "string"
        }
      ],
      "name": "setBaseUri",
      "outputs": [],
      "stateMutability": "nonpayable",
      "type": "function"
    },
    {
      "inputs": [
        {
          "internalType": "bytes4",
          "name": "interfaceId",
          "type": "bytes4"
        }
      ],
      "name": "supportsInterface",
      "outputs": [
        {
          "internalType": "bool",
          "name": "",
          "type": "bool"
        }
      ],
      "stateMutability": "view",
      "type": "function"
    },
    {
      "inputs": [],
      "name": "symbol",
      "outputs": [
        {
          "internalType": "string",
          "name": "",
          "type": "string"
        }
      ],
      "stateMutability": "view",
      "type": "function"
    },
    {
      "inputs": [
        {
          "internalType": "uint256",
          "name": "index",
          "type": "uint256"
        }
      ],
      "name": "tokenByIndex",
      "outputs": [
        {
          "internalType": "uint256",
          "name": "",
          "type": "uint256"
        }
      ],
      "stateMutability": "view",
      "type": "function"
    },
    {
      "inputs": [
        {
          "internalType": "uint256",
          "name": "",
          "type": "uint256"
        }
      ],
      "name": "tokenIdToCuteness",
      "outputs": [
        {
          "internalType": "uint256",
          "name": "",
          "type": "uint256"
        }
      ],
      "stateMutability": "view",
      "type": "function"
    },
    {
      "inputs": [
        {
          "internalType": "uint256",
          "name": "",
          "type": "uint256"
        }
      ],
      "name": "tokenIdToLevels",
      "outputs": [
        {
          "internalType": "uint256",
          "name": "",
          "type": "uint256"
        }
      ],
      "stateMutability": "view",
      "type": "function"
    },
    {
      "inputs": [
        {
          "internalType": "uint256",
          "name": "",
          "type": "uint256"
        }
      ],
      "name": "tokenIdToPower",
      "outputs": [
        {
          "internalType": "uint256",
          "name": "",
          "type": "uint256"
        }
      ],
      "stateMutability": "view",
      "type": "function"
    },
    {
      "inputs": [
        {
          "internalType": "address",
          "name": "owner",
          "type": "address"
        },
        {
          "internalType": "uint256",
          "name": "index",
          "type": "uint256"
        }
      ],
      "name": "tokenOfOwnerByIndex",
      "outputs": [
        {
          "internalType": "uint256",
          "name": "",
          "type": "uint256"
        }
      ],
      "stateMutability": "view",
      "type": "function"
    },
    {
      "inputs": [
        {
          "internalType": "uint256",
          "name": "tokenId",
          "type": "uint256"
        }
      ],
      "name": "tokenURI",
      "outputs": [
        {
          "internalType": "string",
          "name": "",
          "type": "string"
        }
      ],
      "stateMutability": "view",
      "type": "function"
    },
    {
      "inputs": [],
      "name": "totalSupply",
      "outputs": [
        {
          "internalType": "uint256",
          "name": "",
          "type": "uint256"
        }
      ],
      "stateMutability": "view",
      "type": "function"
    },
    {
      "inputs": [
        {
          "internalType": "address",
          "name": "from",
          "type": "address"
        },
        {
          "internalType": "address",
          "name": "to",
          "type": "address"
        },
        {
          "internalType": "uint256",
          "name": "tokenId",
          "type": "uint256"
        }
      ],
      "name": "transferFrom",
      "outputs": [],
      "stateMutability": "nonpayable",
      "type": "function"
    },
    {
      "inputs": [
        {
          "internalType": "address",
          "name": "newOwner",
          "type": "address"
        }
      ],
      "name": "transferOwnership",
      "outputs": [],
      "stateMutability": "nonpayable",
      "type": "function"
    },
    {
      "inputs": [],
      "name": "withdraw",
      "outputs": [],
      "stateMutability": "nonpayable",
      "type": "function"
    }
  ],
  "bytecode": "0x6080604052600e805460ff191660011790556000600f553480156200002357600080fd5b50604051806040016040528060088152602001672832b733bab6b7b760c11b815250604051806040016040528060048152602001632826a7a760e11b8152508160009081620000739190620001a5565b506001620000828282620001a5565b5050506200009f62000099620000aa60201b60201c565b620000ae565b6001600b5562000271565b3390565b600a80546001600160a01b038381166001600160a01b0319831681179093556040519116919082907f8be0079c531659141344cd1fd0a4f28419497f9722a3daafe3b4186f6b6457e090600090a35050565b634e487b7160e01b600052604160045260246000fd5b600181811c908216806200012b57607f821691505b6020821081036200014c57634e487b7160e01b600052602260045260246000fd5b50919050565b601f821115620001a057600081815260208120601f850160051c810160208610156200017b5750805b601f850160051c820191505b818110156200019c5782815560010162000187565b5050505b505050565b81516001600160401b03811115620001c157620001c162000100565b620001d981620001d2845462000116565b8462000152565b602080601f831160018114620002115760008415620001f85750858301515b600019600386901b1c1916600185901b1785556200019c565b600085815260208120601f198616915b82811015620002425788860151825594840194600190910190840162000221565b5085821015620002615787850151600019600388901b60f8161c191681555b5050505050600190811b01905550565b61215f80620002816000396000f3fe6080604052600436106101e35760003560e01c80636352211e11610102578063a22cb46511610095578063e985e9c511610064578063e985e9c51461055b578063f2fde38b146105a4578063f43785f9146105c4578063f82f3034146105f157600080fd5b8063a22cb465146104ce578063b88d4fde146104ee578063c6a4342f1461050e578063c87b56dd1461053b57600080fd5b806395d89b41116100d157806395d89b411461046f57806398d5fdca146104845780639abc832014610499578063a0bcfc7f146104ae57600080fd5b80636352211e146103fc57806370a082311461041c578063715018a61461043c5780638da5cb5b1461045157600080fd5b80632f745c591161017a57806342842e0e1161014957806342842e0e1461039457806342966c68146103b45780634f6ccce7146103d45780635537f059146103f457600080fd5b80632f745c591461031257806336bb4b4b146103325780633ccfd60b1461035f57806340de0fb91461037457600080fd5b8063095ea7b3116101b6578063095ea7b31461029957806316c61ccc146102b957806318160ddd146102d357806323b872dd146102f257600080fd5b806301ffc9a7146101e857806302329a291461021d57806306fdde031461023f578063081812fc14610261575b600080fd5b3480156101f457600080fd5b50610208610203366004611ac4565b61061e565b60405190151581526020015b60405180910390f35b34801561022957600080fd5b5061023d610238366004611af6565b610649565b005b34801561024b57600080fd5b50610254610664565b6040516102149190611b61565b34801561026d57600080fd5b5061028161027c366004611b74565b6106f6565b6040516001600160a01b039091168152602001610214565b3480156102a557600080fd5b5061023d6102b4366004611ba4565b61071d565b3480156102c557600080fd5b50600e546102089060ff1681565b3480156102df57600080fd5b506008545b604051908152602001610214565b3480156102fe57600080fd5b5061023d61030d366004611bce565b610837565b34801561031e57600080fd5b506102e461032d366004611ba4565b610868565b34801561033e57600080fd5b506102e461034d366004611b74565b60116020526000908152604090205481565b34801561036b57600080fd5b5061023d6108fe565b34801561038057600080fd5b5061023d61038f366004611c0a565b6109b7565b3480156103a057600080fd5b5061023d6103af366004611bce565b610a30565b3480156103c057600080fd5b5061023d6103cf366004611b74565b610a4b565b3480156103e057600080fd5b506102e46103ef366004611b74565b610a57565b61023d610aea565b34801561040857600080fd5b50610281610417366004611b74565b610b64565b34801561042857600080fd5b506102e4610437366004611c26565b610bc4565b34801561044857600080fd5b5061023d610c4a565b34801561045d57600080fd5b50600a546001600160a01b0316610281565b34801561047b57600080fd5b50610254610c5e565b34801561049057600080fd5b50600f546102e4565b3480156104a557600080fd5b50610254610c6d565b3480156104ba57600080fd5b5061023d6104c9366004611ccd565b610cfb565b3480156104da57600080fd5b5061023d6104e9366004611d16565b610d13565b3480156104fa57600080fd5b5061023d610509366004611d49565b610d1e565b34801561051a57600080fd5b506102e4610529366004611b74565b60106020526000908152604090205481565b34801561054757600080fd5b50610254610556366004611b74565b610d56565b34801561056757600080fd5b50610208610576366004611dc5565b6001600160a01b03918216600090815260056020908152604080832093909416825291909152205460ff1690565b3480156105b057600080fd5b5061023d6105bf366004611c26565b610dbd565b3480156105d057600080fd5b506102e46105df366004611b74565b60009081526010602052604090205490565b3480156105fd57600080fd5b506102e461060c366004611b74565b60126020526000908152604090205481565b60006001600160e01b0319821663780e9d6360e01b1480610643575061064382610e33565b92915050565b610651610e83565b600e805460ff1916911515919091179055565b60606000805461067390611def565b80601f016020809104026020016040519081016040528092919081815260200182805461069f90611def565b80156106ec5780601f106106c1576101008083540402835291602001916106ec565b820191906000526020600020905b8154815290600101906020018083116106cf57829003601f168201915b5050505050905090565b600061070182610edd565b506000908152600460205260409020546001600160a01b031690565b600061072882610b64565b9050806001600160a01b0316836001600160a01b03160361079a5760405162461bcd60e51b815260206004820152602160248201527f4552433732313a20617070726f76616c20746f2063757272656e74206f776e656044820152603960f91b60648201526084015b60405180910390fd5b336001600160a01b03821614806107b657506107b68133610576565b6108285760405162461bcd60e51b815260206004820152603d60248201527f4552433732313a20617070726f76652063616c6c6572206973206e6f7420746f60448201527f6b656e206f776e6572206f7220617070726f76656420666f7220616c6c0000006064820152608401610791565b6108328383610f3c565b505050565b6108413382610faa565b61085d5760405162461bcd60e51b815260040161079190611e29565b610832838383611029565b600061087383610bc4565b82106108d55760405162461bcd60e51b815260206004820152602b60248201527f455243373231456e756d657261626c653a206f776e657220696e646578206f7560448201526a74206f6620626f756e647360a81b6064820152608401610791565b506001600160a01b03919091166000908152600660209081526040808320938352929052205490565b610906610e83565b600061091a600a546001600160a01b031690565b60405190915047906000906001600160a01b0384169083908381818185875af1925050503d806000811461096a576040519150601f19603f3d011682016040523d82523d6000602084013e61096f565b606091505b50509050806108325760405162461bcd60e51b81526020600482015260146024820152732330b4b632b2103a379039b2b7321022ba3432b960611b6044820152606401610791565b60008181526010602052604090205482156109dd57806109d681611e8c565b5050505050565b60018111610a265760405162461bcd60e51b815260206004820152601660248201527526b4b734b6bab6903632bb32b61034b990363b36189760511b6044820152606401610791565b806109d681611ea5565b61083283838360405180602001604052806000815250610d1e565b610a548161119a565b50565b6000610a6260085490565b8210610ac55760405162461bcd60e51b815260206004820152602c60248201527f455243373231456e756d657261626c653a20676c6f62616c20696e646578206f60448201526b7574206f6620626f756e647360a01b6064820152608401610791565b60088281548110610ad857610ad8611ebc565b90600052602060002001549050919050565b600e5460ff1615610b2b5760405162461bcd60e51b815260206004820152600b60248201526a14d85b19481c185d5cd95960aa1b6044820152606401610791565b6000610b36600c5490565b9050610b46600c80546001019055565b610b50338261123d565b600090815260106020526040902060019055565b6000818152600260205260408120546001600160a01b0316806106435760405162461bcd60e51b8152602060048201526018602482015277115490cdcc8c4e881a5b9d985b1a59081d1bdad95b88125160421b6044820152606401610791565b60006001600160a01b038216610c2e5760405162461bcd60e51b815260206004820152602960248201527f4552433732313a2061646472657373207a65726f206973206e6f7420612076616044820152683634b21037bbb732b960b91b6064820152608401610791565b506001600160a01b031660009081526003602052604090205490565b610c52610e83565b610c5c6000611257565b565b60606001805461067390611def565b600d8054610c7a90611def565b80601f0160208091040260200160405190810160405280929190818152602001828054610ca690611def565b8015610cf35780601f10610cc857610100808354040283529160200191610cf3565b820191906000526020600020905b815481529060010190602001808311610cd657829003601f168201915b505050505081565b610d03610e83565b600d610d0f8282611f20565b5050565b610d0f3383836112a9565b610d283383610faa565b610d445760405162461bcd60e51b815260040161079190611e29565b610d5084848484611377565b50505050565b6060610d6182610edd565b6000610d6b6113aa565b90506000815111610d8b5760405180602001604052806000815250610db6565b80610d95846113b9565b604051602001610da6929190611fe0565b6040516020818303038152906040525b9392505050565b610dc5610e83565b6001600160a01b038116610e2a5760405162461bcd60e51b815260206004820152602660248201527f4f776e61626c653a206e6577206f776e657220697320746865207a65726f206160448201526564647265737360d01b6064820152608401610791565b610a5481611257565b60006001600160e01b031982166380ac58cd60e01b1480610e6457506001600160e01b03198216635b5e139f60e01b145b8061064357506301ffc9a760e01b6001600160e01b0319831614610643565b600a546001600160a01b03163314610c5c5760405162461bcd60e51b815260206004820181905260248201527f4f776e61626c653a2063616c6c6572206973206e6f7420746865206f776e65726044820152606401610791565b6000818152600260205260409020546001600160a01b0316610a545760405162461bcd60e51b8152602060048201526018602482015277115490cdcc8c4e881a5b9d985b1a59081d1bdad95b88125160421b6044820152606401610791565b600081815260046020526040902080546001600160a01b0319166001600160a01b0384169081179091558190610f7182610b64565b6001600160a01b03167f8c5be1e5ebec7d5bd14f71427d1e84f3dd0314c0f7b2291e5b200ac8c7c3b92560405160405180910390a45050565b600080610fb683610b64565b9050806001600160a01b0316846001600160a01b03161480610ffd57506001600160a01b0380821660009081526005602090815260408083209388168352929052205460ff165b806110215750836001600160a01b0316611016846106f6565b6001600160a01b0316145b949350505050565b826001600160a01b031661103c82610b64565b6001600160a01b0316146110625760405162461bcd60e51b81526004016107919061200f565b6001600160a01b0382166110c45760405162461bcd60e51b8152602060048201526024808201527f4552433732313a207472616e7366657220746f20746865207a65726f206164646044820152637265737360e01b6064820152608401610791565b6110d1838383600161144c565b826001600160a01b03166110e482610b64565b6001600160a01b03161461110a5760405162461bcd60e51b81526004016107919061200f565b600081815260046020908152604080832080546001600160a01b03199081169091556001600160a01b0387811680865260038552838620805460001901905590871680865283862080546001019055868652600290945282852080549092168417909155905184937fddf252ad1be2c89b69c2b068fc378daa952ba7f163c4a11628f55a4df523b3ef91a4505050565b60006111a582610b64565b90506111b581600084600161144c565b6111be82610b64565b600083815260046020908152604080832080546001600160a01b03199081169091556001600160a01b0385168085526003845282852080546000190190558785526002909352818420805490911690555192935084927fddf252ad1be2c89b69c2b068fc378daa952ba7f163c4a11628f55a4df523b3ef908390a45050565b610d0f828260405180602001604052806000815250611579565b600a80546001600160a01b038381166001600160a01b0319831681179093556040519116919082907f8be0079c531659141344cd1fd0a4f28419497f9722a3daafe3b4186f6b6457e090600090a35050565b816001600160a01b0316836001600160a01b03160361130a5760405162461bcd60e51b815260206004820152601960248201527f4552433732313a20617070726f766520746f2063616c6c6572000000000000006044820152606401610791565b6001600160a01b03838116600081815260056020908152604080832094871680845294825291829020805460ff191686151590811790915591519182527f17307eab39ab6107e8899845ad3d59bd9653f200f220920489ca2b5937696c31910160405180910390a3505050565b611382848484611029565b61138e848484846115ac565b610d505760405162461bcd60e51b815260040161079190612054565b6060600d805461067390611def565b606060006113c6836116ad565b600101905060008167ffffffffffffffff8111156113e6576113e6611c41565b6040519080825280601f01601f191660200182016040528015611410576020820181803683370190505b5090508181016020015b600019016f181899199a1a9b1b9c1cb0b131b232b360811b600a86061a8153600a850494508461141a57509392505050565b60018111156114bb5760405162461bcd60e51b815260206004820152603560248201527f455243373231456e756d657261626c653a20636f6e7365637574697665207472604482015274185b9cd9995c9cc81b9bdd081cdd5c1c1bdc9d1959605a1b6064820152608401610791565b816001600160a01b0385166115175761151281600880546000838152600960205260408120829055600182018355919091527ff3f7a9fe364faab93b216da50a3214154f22a0a2b415b23a84c8169e8b636ee30155565b61153a565b836001600160a01b0316856001600160a01b03161461153a5761153a8582611785565b6001600160a01b0384166115565761155181611822565b6109d6565b846001600160a01b0316846001600160a01b0316146109d6576109d684826118d1565b6115838383611915565b61159060008484846115ac565b6108325760405162461bcd60e51b815260040161079190612054565b60006001600160a01b0384163b156116a257604051630a85bd0160e11b81526001600160a01b0385169063150b7a02906115f09033908990889088906004016120a6565b6020604051808303816000875af192505050801561162b575060408051601f3d908101601f19168201909252611628918101906120e3565b60015b611688573d808015611659576040519150601f19603f3d011682016040523d82523d6000602084013e61165e565b606091505b5080516000036116805760405162461bcd60e51b815260040161079190612054565b805181602001fd5b6001600160e01b031916630a85bd0160e11b149050611021565b506001949350505050565b60008072184f03e93ff9f4daa797ed6e38ed64bf6a1f0160401b83106116ec5772184f03e93ff9f4daa797ed6e38ed64bf6a1f0160401b830492506040015b6d04ee2d6d415b85acef81000000008310611718576d04ee2d6d415b85acef8100000000830492506020015b662386f26fc10000831061173657662386f26fc10000830492506010015b6305f5e100831061174e576305f5e100830492506008015b612710831061176257612710830492506004015b60648310611774576064830492506002015b600a83106106435760010192915050565b6000600161179284610bc4565b61179c9190612100565b6000838152600760205260409020549091508082146117ef576001600160a01b03841660009081526006602090815260408083208584528252808320548484528184208190558352600790915290208190555b5060009182526007602090815260408084208490556001600160a01b039094168352600681528383209183525290812055565b60085460009061183490600190612100565b6000838152600960205260408120546008805493945090928490811061185c5761185c611ebc565b90600052602060002001549050806008838154811061187d5761187d611ebc565b60009182526020808320909101929092558281526009909152604080822084905585825281205560088054806118b5576118b5612113565b6001900381819060005260206000200160009055905550505050565b60006118dc83610bc4565b6001600160a01b039093166000908152600660209081526040808320868452825280832085905593825260079052919091209190915550565b6001600160a01b03821661196b5760405162461bcd60e51b815260206004820181905260248201527f4552433732313a206d696e7420746f20746865207a65726f20616464726573736044820152606401610791565b6000818152600260205260409020546001600160a01b0316156119d05760405162461bcd60e51b815260206004820152601c60248201527f4552433732313a20746f6b656e20616c7265616479206d696e746564000000006044820152606401610791565b6119de60008383600161144c565b6000818152600260205260409020546001600160a01b031615611a435760405162461bcd60e51b815260206004820152601c60248201527f4552433732313a20746f6b656e20616c7265616479206d696e746564000000006044820152606401610791565b6001600160a01b038216600081815260036020908152604080832080546001019055848352600290915280822080546001600160a01b0319168417905551839291907fddf252ad1be2c89b69c2b068fc378daa952ba7f163c4a11628f55a4df523b3ef908290a45050565b6001600160e01b031981168114610a5457600080fd5b600060208284031215611ad657600080fd5b8135610db681611aae565b80358015158114611af157600080fd5b919050565b600060208284031215611b0857600080fd5b610db682611ae1565b60005b83811015611b2c578181015183820152602001611b14565b50506000910152565b60008151808452611b4d816020860160208601611b11565b601f01601f19169290920160200192915050565b602081526000610db66020830184611b35565b600060208284031215611b8657600080fd5b5035919050565b80356001600160a01b0381168114611af157600080fd5b60008060408385031215611bb757600080fd5b611bc083611b8d565b946020939093013593505050565b600080600060608486031215611be357600080fd5b611bec84611b8d565b9250611bfa60208501611b8d565b9150604084013590509250925092565b60008060408385031215611c1d57600080fd5b611bc083611ae1565b600060208284031215611c3857600080fd5b610db682611b8d565b634e487b7160e01b600052604160045260246000fd5b600067ffffffffffffffff80841115611c7257611c72611c41565b604051601f8501601f19908116603f01168101908282118183101715611c9a57611c9a611c41565b81604052809350858152868686011115611cb357600080fd5b858560208301376000602087830101525050509392505050565b600060208284031215611cdf57600080fd5b813567ffffffffffffffff811115611cf657600080fd5b8201601f81018413611d0757600080fd5b61102184823560208401611c57565b60008060408385031215611d2957600080fd5b611d3283611b8d565b9150611d4060208401611ae1565b90509250929050565b60008060008060808587031215611d5f57600080fd5b611d6885611b8d565b9350611d7660208601611b8d565b925060408501359150606085013567ffffffffffffffff811115611d9957600080fd5b8501601f81018713611daa57600080fd5b611db987823560208401611c57565b91505092959194509250565b60008060408385031215611dd857600080fd5b611de183611b8d565b9150611d4060208401611b8d565b600181811c90821680611e0357607f821691505b602082108103611e2357634e487b7160e01b600052602260045260246000fd5b50919050565b6020808252602d908201527f4552433732313a2063616c6c6572206973206e6f7420746f6b656e206f776e6560408201526c1c881bdc88185c1c1c9bdd9959609a1b606082015260800190565b634e487b7160e01b600052601160045260246000fd5b600060018201611e9e57611e9e611e76565b5060010190565b600081611eb457611eb4611e76565b506000190190565b634e487b7160e01b600052603260045260246000fd5b601f82111561083257600081815260208120601f850160051c81016020861015611ef95750805b601f850160051c820191505b81811015611f1857828155600101611f05565b505050505050565b815167ffffffffffffffff811115611f3a57611f3a611c41565b611f4e81611f488454611def565b84611ed2565b602080601f831160018114611f835760008415611f6b5750858301515b600019600386901b1c1916600185901b178555611f18565b600085815260208120601f198616915b82811015611fb257888601518255948401946001909101908401611f93565b5085821015611fd05787850151600019600388901b60f8161c191681555b5050505050600190811b01905550565b60008351611ff2818460208801611b11565b835190830190612006818360208801611b11565b01949350505050565b60208082526025908201527f4552433732313a207472616e736665722066726f6d20696e636f72726563742060408201526437bbb732b960d91b606082015260800190565b60208082526032908201527f4552433732313a207472616e7366657220746f206e6f6e20455243373231526560408201527131b2b4bb32b91034b6b83632b6b2b73a32b960711b606082015260800190565b6001600160a01b03858116825284166020820152604081018390526080606082018190526000906120d990830184611b35565b9695505050505050565b6000602082840312156120f557600080fd5b8151610db681611aae565b8181038181111561064357610643611e76565b634e487b7160e01b600052603160045260246000fdfea2646970667358221220f8f622e5da6948014b2a3b004043827848ee5a9e90b07566137a83453a91671e64736f6c63430008110033",
  "linkReferences": {},
  "deployedLinkReferences": {}
}